:020000040800F2
:10000000A004002001010008EF1000081F100008E4
:10001000ED1000088D0200088D140008000000009B
:1000200000000000000000000000000013110008A4
:100030008F020008000000001111000815110008CF
:100040001B0100081B0100081B0100081B01000820
:100050001B0100081B0100081B0100081B01000810
:100060001B0100081B0100081B0100081B01000800
:100070001B0100081B0100081B0100081B010008F0
:100080001B0100081B0100081B0100081B010008E0
:100090001B0100081B0100081B0100081B010008D0
:1000A0001B0100081B0100081B0100081B010008C0
:1000B0001B010008CD1100081B0100081B010008EE
:1000C0001B0100081B0100081B0100081B010008A0
:1000D0001B0100081B0100081B0100081B01000890
:1000E0001B0100081B0100081B010008DFF80CD0F1
:1000F00000F02AF80048004749170008A004002033
:100100000648804706480047FEE7FEE7FEE7FEE7B1
:10011000FEE7FEE7FEE7FEE7FEE7FEE785110008E3
:10012000ED000008D2B201E000F8012B491EFBD21D
:1001300070470022F6E710B513460A4604461946F2
:10014000FFF7F0FF204610BD064C074D06E0E068C3
:1001500040F0010394E8070098471034AC42F6D30E
:10016000FFF7C8FF3C1800085C18000801A001F068
:100170008FB9000042544E315F444F55424C455FA9
:10018000436C69636B5F48616E646C65720D0A0055
:1001900001A001F07DB9000042544E315F4C4F4E3A
:1001A000475F50524553535F484F4C445F48616E20
:1001B000646C65720D0A000001A001F069B90000CD
:1001C00042544E315F4C4F4E475F52524553535F3E
:1001D00053544152545F48616E646C65720D0A005D
:1001E00010B50121034801F0A7FABDE8104002A0B4
:1001F00001F04EB90000002042544E315F5052458C
:1002000053535F444F574E5F48616E646C65720D87
:100210000A00000001A001F03BB9000042544E3139
:100220005F50524553535F5245504541545F4861BA
:100230006E646C65720D0A0010B50021034801F070
:100240007BFABDE8104002A001F022B900000020B6
:1002500042544E315F50524553535F55505F486191
:100260006E646C65720D0A0001A001F011B9000006
:1002700042544E315F53494E474C455F436C69636E
:100280006B5F48616E646C65720D0A00FEE7704733
:1002900070B5044600F0F6F80546601C02D004482C
:1002A0000078044400F0EEF8401BA042FAD370BD81
:1002B0000C0000202DE9F84FDFF890A100220AF190
:1002C000040B144601274FF00F090BF1040E00BF79
:1002D0000B6807FA04F52B40AB4274D1DFF870C10C
:1002E0004E68A6EB0C0866452BD00DDC032E34D0EF
:1002F00005DC36B3012E19D0022E2FD11BE0112EB2
:1003000016D0122E2AD119E0B8F5881F19D006DCB4
:10031000B8F5803F15D0B8F5801F1FD111E0B8F5B2
:10032000001F0ED0B8F5041F18D10AE0CA6815E006
:10033000CA68121D12E0CA6808320FE0CA680C329F
:100340000CE08A682AB1012A4FF0080203D0456107
:1003500004E0042202E0056100E00022FF2B01D846
:10036000064601E000F104064FEA840501D9A5F133
:100370002005D6F800C009FA05F82CEA080C02FAA4
:1003800005F54CEA050CC6F800C04D68ED0057D5E0
:10039000304DAE6946F00106AE61AD6924F003064A
:1003A00005F0010500952C4D06EB050CDCF8085016
:1003B000A6074FEA167809FA08F6B543274EB04269
:1003C00002D1002610E03BE0254EB04201D10126CB
:1003D0000AE0244EB04201D1022605E0224EB0428E
:1003E00001D1032600E0042606FA08F62E43CCF8D5
:1003F00008604D68DAF80060ED03554601D51E43EC
:1004000000E09E432E604D68DBF80060AD035D4662
:1004100001D51E4300E09E432E604D68DEF800606B
:10042000ED02754601D51E4300E09E432E604D68E7
:10043000AD020E4D2E6801D51E4300E09E432E6096
:10044000641C102CFFF444AFBDE8F88F0004014099
:10045000000011100010024000000140000801409F
:10046000000C014000100140001401400C04014048
:100470008068084000D0012070470AB101617047D0
:100480000904FBE701488068704700000C00002069
:100490000248816802781144816070470C00002096
:1004A000074810B5016841F010010160032000F019
:1004B0009DF8002000F006F800F024F8002010BDA0
:1004C0000020024070B50D4D04464FF47A71287833
:1004D000B1FBF0F00A490968B1FBF0F000F02DFB28
:1004E00048B9102C07D200222146501E00F05EF8B9
:1004F00000206C6070BD012070BD00000C00002069
:1005000018000020214808B5816941F0010181618E
:10051000816901F001010091C16941F08051C1611F
:10052000C06900F080500090032000F05FF80022C6
:1005300011466FF00B0000F039F8002211466FF001
:100540000A0000F033F8002211466FF0090000F0B5
:100550002DF800221146501F00F028F80022114605
:10056000101F00F023F800221146901E00F01EF824
:1005700000221146501E00F019F80548416821F08C
:10058000E06141F00071416008BD000000100240D0
:100590000000014000F01F0201219140400980004D
:1005A00000F1E020C0F8001170470000F0B40E4BDD
:1005B0001B680C46C3F30223C3F10705042D00D9C1
:1005C0000425191D072901D2002300E0DB1E0126A6
:1005D00006FA05F1491E214099409E40761E1640BC
:1005E0003143F0BC00F084BD0CED00E0064900F0A2
:1005F000070208684FF6FF03184040EA0220034A4A
:1006000010430860704700000CED00E00000FA05A0
:100610002DE9F047DFF83C8105460E46D8F800008A
:1006200000F00700B0420CD2D8F8001021F007010A
:100630003143C8F80010D8F8000000F00700B042BD
:1006400063D12878444C800705D56068A96820F0FC
:10065000F000084360602878C00745D0686801282A
:1006600016D02168022816D0890700294DDA616862
:1006700021F0030101436160FFF704FF6968074649
:1006800041F2883001290FD00229814619D027E094
:1006900021688903E9E78901E7E700BFFFF7F2FE78
:1006A000C11B494501D918E081466068C0F381004B
:1006B0000128F3D118E000BFFFF7E4FEC11B494554
:1006C0000BD86068C0F381000228F5D10CE000BFB0
:1006D000FFF7D8FEC11B494502D90320BDE8F087CA
:1006E000606810F00C0FF3D1D8F80010404601F00C
:1006F0000701B1420BD9016821F0070131430160C4
:10070000006800F00700B04201D00120E6E7287839
:10071000400705D56068E96820F4E0600843606040
:100720002878000706D56068296920F4605040EAFF
:10073000C100606000F03CF86168084AC1F3031131
:10074000515CC840064908600020FFF7BBFE00204E
:10075000C4E70000002002400010024024180008F6
:1007600018000020014800687047000018000020B1
:100770000448054900684968044AC1F30221515CF4
:10078000C8407047180000200010024034180008CC
:100790000448054900684968044AC1F3C221515C14
:1007A000C8407047180000200010024034180008AC
:1007B00012A185B00FC98DE80F0014A0144A00687B
:1007C00004905168134801F00C03042B10D0082B3F
:1007D0000ED1C1F38343C9031DF803000AD5516844
:1007E00004AAC1F34041515C0A4A5043B0FBF1F006
:1007F00005B0704708494843FAE7000002030405C2
:10080000060708090A0B0C0D0E0F1010010200005C
:100810000010024000127A0000093D002DE9F84F57
:1008200004460078B94DC00748D06868C0F381001D
:10083000012807D06868C0F38100022809D16868E0
:10084000C00306D52868800338D5606800286FD0BB
:1008500034E06068B0F5803F0BD010B1B0F5A02F48
:1008600011D0286820F480302860286820F4802087
:1008700002E0286840F480302860606888B1FFF7A3
:1008800001FE064609E0286840F480202860F0E771
:10089000FFF7F8FD801B642875D828688003F7D51A
:1008A0000CE0FFF7EFFD064605E000BFFFF7EAFDAD
:1008B000801B6428F0D828688003F7D42078944EF1
:1008C00080074FF001094FF000083BD5686810F031
:1008D0000C0F07D06868C0F38100022809D168684E
:1008E000C00306D42868800714D5206901281FD1C9
:1008F00010E02069B0B1C6F80090FFF7C3FD0746CD
:1009000005E000BFFFF7BEFDC01B0228C4D8286861
:100910008007F7D52868616920F0F80040EAC10037
:1009200028600FE0C6F80080FFF7ACFD074606E040
:10093000E9E000BFFFF7A6FDC01B022823D8286806
:100940008007F7D4207800072CD57248A169D9B167
:10095000C0F80090FFF796FD074604E0FFF792FD10
:10096000C01B02280FD8686A8007F7D56A484FF481
:10097000FA510068B0FBF1F0009000BF0098411EF2
:100980000091FAD20EE080E0C0F80080FFF77AFD17
:10099000074604E0FFF776FDC01B022875D8686A99
:1009A0008007F7D42078400760D5E8690027C000A9
:1009B00008D4E86940F08050E861E869012700F058
:1009C0008050009055480168C90513D401688346DA
:1009D00041F480710160FFF755FD824606E000BFDB
:1009E000FFF750FDA0EB0A0064284ED8DBF80000AA
:1009F000C005F5D5E06801280AD008B1052813D054
:100A0000286A20F001002862286A20F0040002E031
:100A1000286A40F001002862E06841F2883B98B102
:100A2000FFF730FD82460BE0286A40F004002862A0
:100A3000EEE700BFFFF726FDA0EB0A0159455AD8A3
:100A4000286A8007F6D50CE0FFF71CFD824605E01A
:100A5000FFF718FDA0EB0A0159454CD8286A80071A
:100A6000F6D41FB1E86920F08050E861E06988B3EE
:100A70006968C1F38101022945D00228C6F8608067
:100A800004D0FFF7FFFC044638E034E0FFF7FAFC3F
:100A9000074604E0FFF7F6FCC01B02282BD82868A5
:100AA0008001F7D4206AB0F5803F05D16868A1685D
:100AB00020F4003008436860D4E9080108436968FD
:100AC00021F4741108436860C6F86090FFF7DAFCFF
:100AD000044606E015E000BFFFF7D4FC001B022827
:100AE00009D828688001F7D50BE000BFFFF7CAFCE2
:100AF000001B022802D90320BDE8F88F2868800176
:100B0000F4D40020F8E70120F6E7000000100240CE
:100B10000000424280044242180000200070004061
:100B20004FF0E0210428086903D020F00400086198
:100B3000704740F00400FAE7704710B5401EB0F16E
:100B4000807F01D3012010BD4FF0E02460610F21B0
:100B5000601700F0CDFA0020A0610720206100207E
:100B600010BD10B5FFF7E8FF10BD7047704730B5F6
:100B700090F83C20012A20D0012280F83C2002235A
:100B800080F83D3003685C6824F070045C600368A2
:100B90005C680D682C435C6003689C6824F08004EA
:100BA0009C6003689C6849680C439C6080F83D2009
:100BB000002180F83C10084630BD022030BD10B541
:100BC000040003D094F83D0010B107E0012010BDEF
:100BD000002084F83C00204600F00CF8022084F845
:100BE0003D00211D206800F0FBFA012084F83D0043
:100BF000002010BD08B500680B49884212D10B488F
:100C0000C16941F00201C161C069002200F0020027
:100C1000009011461D20FFF7C9FCBDE808401D20CB
:100C2000FFF7B8BC08BD00000004004000100240FF
:100C30000168CA6842F00102CA600068016841F0B8
:100C4000010101600020704770B5044690F83C0037
:100C5000012817D0012584F83C50022084F83D007B
:100C60002068826822F0770222F47F42826008685E
:100C7000502837D00DDC202859D005DC88B3102847
:100C800041D151E0022070BD302853D040283AD1E4
:100C90003FE060282ED070280BD0B0F5805F03D0E5
:100CA000B0F5005F2FD110E02068816821F00701C6
:100CB00015E0CB68D1E90121206800F0C7FA21686E
:100CC000886840F0770088601DE0CB68D1E9012199
:100CD000206800F0BBFA2068816841F4804181609F
:100CE00011E01EE0CA684968206800F0C1FA50218E
:100CF000206806E0CA684968206800F0CAFA6021E6
:100D0000206800F0ADFA84F83D50002084F83C00E3
:100D100070BDCA684968206800F0AAFA40212068BE
:100D2000EFE700212068ECE710212068E9E72021A7
:100D30002068E6E730212068E3E7704770B5044695
:100D4000006801694FF00005C943890715D4C168DF
:100D5000C943890711D4E91E016101202077206869
:100D600080698007204602D0FFF7E7FF04E000F02B
:100D700098F8204600F096F8257720680169C94365
:100D8000490717D4C168C943490713D46FF0040158
:100D90000161022020772068806910F4407F20469E
:100DA00002D0FFF7CAFF04E000F07BF8204600F015
:100DB00079F8257720680169C943090716D4C16805
:100DC000C943090712D46FF008010161042020779C
:100DD0002068C0698007204602D0FFF7AEFF04E01C
:100DE00000F05FF8204600F05DF825772068016983
:100DF000C943C90617D4C168C943C90613D46FF0E3
:100E000010010161082020772068C06910F4407F3C
:100E1000204602D0FFF791FF04E000F042F82046A0
:100E200000F040F8257720680169C943C90708D157
:100E3000C168C943C90704D1891E0161204600F079
:100E400032F820680169C943090609D4C168C94359
:100E5000090605D46FF0800101612046FFF785FE89
:100E600020680169C943490609D4C168C9434906D4
:100E700005D46FF040010161204600F015F82068AC
:100E80000169C94389060BD4C168C943890607D4DF
:100E90006FF0200101612046BDE87040FFF766BE9B
:100EA00070BD704770477047704770B5040004D03C
:100EB00094F83900002510B106E0012070BD84F8D7
:100EC0003850204600F022F8242084F839002068A9
:100ED000C16821F40051C160204600F0EDF920689E
:100EE000016921F4904101612068416921F02A01E2
:100EF00041612068C16841F40051C160E563202070
:100F000084F8390084F83A00002070BD10B50068FC
:100F1000114986B088421DD11048816941F4804151
:100F2000816180690E4C00F4804004904FF40070A1
:100F30000090022001900320039069462046FFF7AD
:100F4000B9F900212015CDE900010291694620463A
:100F5000FFF7B0F906B010BD0038014000100240A4
:100F6000000801402DE9F843044690F839001F4677
:100F700016460D46202850D1A5B19EB194F83800F0
:100F800001284AD0012084F838004FF00008C4F846
:100F90003C80212084F83900FFF774FAA68481464A
:100FA000E68426E00120BDE8F883E08C401EE08462
:100FB000A0684B46B0F5805F4FF000024FF0800113
:100FC0002046009703D000F02FFAE8B90DE000F0BA
:100FD0002BFAC8B928882168C0F308004860206946
:100FE00008B16D1C05E0AD1C03E0216815F8010B8C
:100FF0004860E08C0028D8D14B4600224021204692
:10100000009700F011FA08B10320CCE7202084F803
:10101000390084F838800020C5E70220C3E7FEE7E6
:1010200070B51A4886B0816941F0200181618169FB
:1010300001F020010491816941F00401816181691D
:1010400001F004010491816941F008018161806926
:101050000F4E00F008000490002207213046FFF7F1
:101060000CFAE020002401258DE83100694609488A
:10107000FFF720F90720CDE900050220CDE9024065
:1010800069463046FFF716F906B070BD0010024001
:10109000000C01400008014010B5134886B011490A
:1010A000016047210024C0E9011441F28831C0E900
:1010B00003148461FFF783FD00B1FEE74FF4805015
:1010C000009069460848FFF7BFFD00B1FEE70494B1
:1010D00004A905480594FFF74AFD002800D0FEE763
:1010E00006B010BD0004004020000020FEE770475D
:1010F0000907090E002806DA00F00F0000F1E020D1
:1011000080F8141D704700F1E02080F8001470474B
:101110007047704710B5FFF7BBF9BDE81040FFF707
:1011200020BD30B58FB00121080400240491CDE921
:101130000010CDE908040294022507956846FFF7E0
:101140006DFB00B1FEE70F200A90CDE90B540D9422
:1011500000210AA80E94FFF75BFA00B1FEE7FFF743
:1011600001FB4FF47A71B0FBF1F0FFF7E6FC0420CD
:10117000FFF7D6FC00221146501EFFF717FA0FB0FA
:1011800030BD00000D48016841F001010160416877
:101190000B4A1140416001680A4A11400160016830
:1011A00021F480210160416821F4FE0141604FF487
:1011B0001F0181600449C0030860704700100240AD
:1011C0000000FFF8FFFFF6FE08ED00E010B5034851
:1011D000FFF7B4FDBDE8104000F086BA2000002003
:1011E000F0B50268164B174C174D4FF080479842E8
:1011F00005D0B84203D0A04201D0A84203D122F0CA
:1012000070064A683243984205D0B84203D0A042E3
:1012100001D0A84203D122F44074CA68224322F0CC
:1012200080044A69224302608A68C2620A68826254
:10123000984201D10969016301214161F0BD0000BB
:10124000002C0140000400400008004010B58468F4
:1012500042EA032224F47F440A432243826010BD01
:10126000826822F070020A4342F0070181607047F1
:1012700010B5036A046A24F001040462846924F04E
:10128000F00444EA021423F00A020A438461026271
:1012900010BD10B5036A23F0100303628369046A6A
:1012A00023F4704343EA023224F0A00343EA01111D
:1012B0008261016210BD00002DE9F0410446006822
:1012C0000169E26821F44051114301612169A0687C
:1012D0000843616908432168CA6841F20C639A4374
:1012E0000243CA6020684169A26921F44071114338
:1012F00041614C4920686425322688423CD1FFF781
:1013000047FA00EBC00101EB001061688900B0FBF7
:10131000F1F7FFF73DFA00EBC00101EB0010616847
:10132000B0468900B0FBF1F0B0FBF5F06FF01801AA
:10133000484307EB800106EB0110B0FBF5F000F02D
:10134000F006FFF725FA00EBC00101EB0010616821
:101350008900B0FBF1F0B0FBF5F006EB0016FFF7EB
:1013600017FA00EBC00101EB001061688900B0FBC7
:10137000F1F7FFF70DFA3BE0FFF7FAF900EBC001D8
:1013800001EB001061688900B0FBF1F7FFF7F0F99D
:1013900000EBC00101EB00106168B0468900B0FBB2
:1013A000F1F0B0FBF5F06FF01801484307EB800156
:1013B00006EB0110B0FBF5F000F0F006FFF7D8F9EE
:1013C00000EBC00101EB001061688900B0FBF1F097
:1013D000B0FBF5F006EB0016FFF7CAF900EBC00111
:1013E00001EB001061688900B0FBF1F7FFF7C0F96D
:1013F00000EBC00101EB001061688900B0FBF1F067
:10140000B0FBF5F06FF01801484307EB800108EBE3
:101410000110B0FBF5F0216800F00F003044886047
:10142000BDE8F081003801402DE9F04198461746AB
:101430000E460446069D1DE0681C1BD02DB1FFF72B
:1014400021F8A0EB0800A84214D92068C16821F453
:10145000D071C1602068416921F001014161202003
:1014600084F8390084F83A00002084F8380003201A
:10147000BDE8F0812068006836EA000004D0002052
:10148000B842D9D00020F3E70120F9E7FEE70000D9
:10149000014A024900F013B8211700081C0000207F
:1014A00002E008C8121F08C1002AFAD1704770472D
:1014B000002001E001C1121F002AFBD170472DE975
:1014C000F04116460F460446002503E03946B04772
:1014D000641C6D1C20780028F8D12846BDE8F081F6
:1014E00000EB81008260704770B504464068804719
:1014F0000146E078420702D02288521C2280B1EBDC
:10150000D01F0CD04FF0005202EBB0104FEAB06089
:10151000C0F3C202E070032A04D361F3C71020F0C5
:101520003800E070C0B200F00701002506291ED285
:10153000DFE801F0031E41811D98C0F38011B1EB7B
:10154000D01FA07820F0F0000FD1A070A16809B1E1
:10155000204688472580A07820F00F00401CA0700E
:10156000E07820F00700401C12E08030A07070BDD1
:10157000C0F38011B1EBD01F0CD0A07820F0F000A8
:101580001030A070E168002966D02046884763E0EB
:10159000E07070BD20881428FBD9A07820F0F000FE
:1015A0005030A070E16909B120468847E07820F00A
:1015B0000700401DECE7C0F38011B1EBD01F21D133
:1015C000A07820F0F000A070A16809B120468847FB
:1015D000A0784FF0805101EB30104FEA3070A070CE
:1015E00000F00F00022803D1A16909B12046884705
:1015F000216909B1204688472580E07820F007005E
:10160000C01CC5E720880628C3D9A07800F00F01C8
:10161000012902D0022909D03AE020F0F000303050
:10162000A070616932E02046884731E020F0F00088
:101630004030A0702CE0C0F38011B1EBD01FA8D0D7
:10164000A07820F0F0001030A070E16809B12046C9
:101650008847208806281BD22580E07820F00700E4
:10166000801C95E7C0F38011B1EBD01FA07820F06B
:10167000F00008D16030A070216A002989D020468E
:10168000BDE8704008471030A070E1680029CAD159
:10169000E07820F007007BE770B50D46164604465B
:1016A0002821FEF746FDA07820F0F0008030A070E1
:1016B0006560A8470146E07861F3C71066F38610BD
:1016C000E07070BD074A11680B4605E0814202D107
:1016D0004FF0FF307047496A0029F7D1436210602C
:1016E0000020704708000020054810B5046803E09A
:1016F0002046FFF7F9FE646A002CF9D110BD000006
:101700000800002020210148FEF7B2BE0008014079
:10171000024601210148FEF7B0BE0000000C014066
:1017200013B54FF47A73012269460248FFF71AFC99
:1017300000981CBD6000002070B50D46044641684D
:1017400028468847257070BD8AB0FEF7A9FE0022A2
:1017500027496846FFF7A0FF264A00216846FFF7A1
:10176000BFFE254A01216846FFF7BAFE234A02213F
:101770006846FFF7B5FE224A03216846FFF7B0FE30
:10178000204A04216846FFF7ABFE1F4A0521684640
:10179000FFF7A6FE1D4A06216846FFF7A1FEFFF7E8
:1017A000C0FCFFF73DFC1B4819490C2201604FF4B7
:1017B000E131416000218160C160C0E904128161B2
:1017C000C161FFF772FB00B1FEE7FFF765FC11484E
:1017D0004038FFF72DFA6846FFF774FF4FF47A742C
:1017E0000DA0FFF755FE2046FEF752FDF8E700007A
:1017F00005170008E1010008390200081502000879
:10180000690200086D010008B90100089101000893
:10181000003801406000002031323334353637382B
:101820003900000000000000000000000102030475
:101830000607080900000000010203045C18000804
:101840000000002020000000A01400087C18000800
:101850002000002080040000B014000801000000F7
:101860001117000800000000010000001000000037
:0C1870000000000000A24A04000000007C
:04000005080000ED02
:00000001FF
